:020000040000FA
:040000001CEF00F001
:100008004782D9CF2DF0DACF2EF0F2AC0BD0A0B6C4
:10001800A1A603D0B8EC02F005D09DB69EA602D0EA
:100028001EEC00F02EC0DAFF2DC0D9FF4792110058
:1000380087EF02F09E96C6AEEED0C69E000E116EF9
:1000480020EE03F00A50D9260B50DA22DECF2BF02F
:10005800DDCF2CF02BC0D9FF2CC0DAFF010EDF6EEC
:10006800000E0A6E000E0B6E120005B2120003C0DD
:100078000AF004C00BF003C0D9FF04C0DAFFDF5058
:10008800106E20EE01F00350D9260450DA22DECF9C
:100098000CF0DDCF0DF0050E0326000E0422250E10
:1000A800031808E1000E0418D8A404D0200E036E2B
:1000B800000E046E05900150031804E10250041864
:1000C800D8B40582C580020E116E1200C5AC05D0E9
:1000D800072A040E3CEC02F01200D89026302C6E51
:1000E80025302B6E2B50C96E25A003D00B0E116E38
:1000F8001200030E116E1200C5AC05D0072A040EBB
:100108003CEC02F01200C58225C02BF026C02CF072
:100118002CC02BF02C6A060E2B16000E2C16F00E97
:100128002B10256E2C50266E2580010E0E6ECBD717
:100138000E04D8B41AD00CC0D9FF0DC0DAFFDECF38
:1001480025F0DDCF26F020EE03F00C50D9260D5017
:10015800DA22DECF08F0DDCF09F020EE02F00C50F5
:10016800D9260D50DA22DF500F6E25C0C9FF25A011
:10017800C0D7050E116E1200C5AC06D0072AC59C63
:10018800050E3CEC02F012000F060F28D8A40CD084
:10019800050E0C26000E0D22102E04D0000E3CEC8D
:1001A80002F01200C5828FD708C0D9FF09C0DAFF54
:1001B800DF50C96E084A092A1200C5AC06D0072AC2
:1001C800040E3CEC02F0C59C1200C586080E116EA8
:1001D8001200080E116EC586120008C0D9FF09C0AA
:1001E800DAFFC9CFDFFF084A092A010E0F5ED8B42B
:1001F80004D0C59A060E116E03D0C58A94EC02F09D
:10020800C5881200000E3CEC02F01200072A060E08
:100218003CEC02F0120011502B6E2C6A2C50000A94
:10022800D8A4F4D72B50000AD8B41FD7010AD8B4E1
:10023800B9D7030AD8B47CD7010AD8B49DD7070A1E
:10024800D8B4E0D7010AD8B4B8D7030AD8B4C1D70C
:10025800010AD8B4D7D70F0AD8B4BFD7020AD8B47E
:1002680035D7010AD8B448D7D1D7A0EC02F0F28E1E
:10027800F28C000E3F6E800EC76E280EC66E000E02
:10028800CB6E270EC86E800E466E000E456E010EB0
:10029800446E960E3F6031D0460E386E000E396EB1
:1002A800010E3A6E000E3C6E080E3B6E270E3D6E38
:1002B800000E3E6EF5EC01F0000E416E000E406E31
:1002C80041BE06D0100E405C270E4158D8B003D06E
:1002D800404A412AF5D7460E386E000E396E44C0A2
:1002E8003AF0000E3C6E080E3B6E270E3D6E000E77
:1002F8003E6EF5EC01F03F2AC6D7960E3F18D8A4FB
:10030800C2D7000E436E000E426E43BE06D0100EDA
:10031800425C270E4358D8B003D0424A432AF5D747
:10032800450E386E000E396E44C03AF0000E3C6E31
:10033800080E3B6E270E3D6E000E3E6EF5EC01F08A
:10034800960E3F6EA0D7346E05B039D031C0D9FFB4
:1003580032C0DAFF020EDF6E20EE01F00150D9261E
:100368000250DA222FC0DEFF30C0DDFF01C0D9FF06
:1003780002C0DAFF34C0DFFF20EE03F00150D926B7
:100388000250DA2231C0DEFF32C0DDFF050E012641
:10039800000E0222250E011808E1000E0218D8A44A
:1003A80004D0200E016E000E026E05920150031853
:1003B8000CE102500418D8A408D0058006D031C03A
:1003C800D9FF32C0DAFF010EDF6E31C0D9FF32C06B
:1003D800DAFF020EDE18D8A41200B4EC02F09E86F2
:1003E800120005B01CD01B0E2F6E000E306E38C0E8
:1003F80031F039C032F03AC033F03BC034F03CC081
:1004080035F01AEC02F01B0E2F6E000E306E3DC058
:1004180031F03EC032F0010EA7EC01F012003DC0F1
:10042800D9FF3EC0DAFF010EDF6E120034C036F08D
:1004380035C037F0D890363637362FC0D9FF30C0A0
:10044800DAFF36C0DEFF37C0DDFF20EE02F02F50A6
:10045800D9263050DA2233C0DFFF20EE03F02F50C8
:10046800D9263050DA2231C0DEFF32C0DDFF12005B
:100478002A6EC58420EE03F00A50D9260B50DA22E2
:10048800DE50DE10D8B410D020EE03F00A50D92682
:100498000B50DA22DECF28F0DDCF29F028C0D9FFB3
:1004A80029C0DAFF2AC0DFFF000E116E1200200EED
:1004B800036E000E046E200E016E000E026E0582A1
:1004C8000590000E076E800EC76E280EC66E000ED1
:1004D800CB6E130EC86E9E96A1969D86A0861200BE
:1004E800000E896E000E8A6E180E8B6E92689368E5
:1004F8009468E40E0F013A6F3F0E396F2F0E386F74
:100508006168F18E120000EE01F0270EEE6AE8062F
:10051800FDE147904792000EF86E000139EF01F0B7
:10052800050E0C26000E0D22102E03D0040E116E9F
:100538001200010E116E1200B0EC02F074EC02F021
:10054800A9EC02F05BEC02F01200720ED36E040EFE
:10055800D26E000E9B6E1200D09EA2969F9612003D
:0C0568001150D8B41200FCD7A19612006C
:020000040020DA
:08000000FFFFFFFFFFFFFFFF00
:020000040030CA
:0E000000FF081F3CFFB581FF0FC00FE00F404F
:00000001FF
