:020000040000FA
:040000001CEF00F001
:100008005782D9CF06F0DACF07F0F2AC0BD0A0B602
:10001800A1A603D060EC0AF005D09DB69EA602D03A
:100028000EEC02F007C0DAFF06C0D9FF57921100A4
:10003800B3EF09F01DEC0AF0F28EF28C020E00010B
:10004800AF6F450EAE6FA90EE82EFED7AE2FFCD7C8
:10005800AF2FFAD700D0000E0001756F010E766F32
:10006800000E736F80EC06F0640E00017519D8A4B9
:1000780005D080EC06F0000E000101D07529756FDF
:10008800870E116E000E126E76C013F0000E156EFC
:10009800080E146E890E166E000E176EDAEC08F054
:1000A80000018A51D8A4FCD7300E8719D8A419D0DA
:1000B800190E096E7E0E0A6E3BEC08F0660E000102
:1000C800886F880E116E000E126E76C013F0000E47
:1000D800156E080E146E8A0E166E000E176EB4ECAE
:1000E80008F040EC0AF00009D8B48AD18B8A28ECD1
:1000F8000AF00001746F690E7419D8A408D0CF0EE5
:10010800096E7F0E0A6E3BEC08F0690E67D1640E2B
:100118007419D8A408D0BE0E096E7F0E0A6E3BEC87
:1001280008F0640E5BD1300E7419D8A41BD0940E5D
:10013800096E7F0E0A6E3BEC08F0000E0001886F16
:10014800000E736F000E086E000E096E000E0A6E28
:10015800000E7EEC09F0B80E096E7E0E0A6E3BECBE
:1001680008F03ED1310E7419D8A41BD0940E096E34
:100178007F0E0A6E3BEC08F0010E0001886F010E3D
:10018800736F000E086E000E096E010E0A6E000EE7
:100198007EEC09F0CE0E096E7E0E0A6E3BEC08F07E
:1001A8001FD1320E7419D8A41BD0940E096E7F0E7D
:1001B8000A6E3BEC08F0020E0001886F020E736FA6
:1001C800000E086E010E096E000E0A6E000E7EEC1F
:1001D80009F0E40E096E7E0E0A6E3BEC08F000D1C1
:1001E800330E7419D8A41BD0940E096E7F0E0A6EB4
:1001F8003BEC08F0030E0001886F030E736F000ECE
:10020800086E010E096E010E0A6E000E7EEC09F0F2
:10021800FA0E096E7E0E0A6E3BEC08F0E1D0340E41
:100228007419D8A41BD0940E096E7F0E0A6E3BEC8D
:1002380008F0040E0001886F040E736F010E086E3B
:10024800000E096E000E0A6E000E7EEC09F0100E0C
:10025800096E7F0E0A6E3BEC08F0C2D0350E741999
:10026800D8A41CD0940E096E7F0E0A6E3BEC08F0E1
:10027800050E0001886F010E086E000E096E010E52
:100288000A6E000E7EEC09F0050E0001736F260E53
:10029800096E7F0E0A6E3BEC08F0A2D0360E741978
:1002A800D8A41CD0940E096E7F0E0A6E3BEC08F0A1
:1002B800060E0001886F010E086E010E096E000E11
:1002C8000A6E000E7EEC09F0060E0001736F3C0EFC
:1002D800096E7F0E0A6E3BEC08F082D0370E741957
:1002E800D8A41BD0940E096E7F0E0A6E3BEC08F062
:1002F800070E0001886F070E736F010E086E010E5E
:10030800096E010E0A6E000E7EEC09F0520E096E9F
:100318007F0E0A6E3BEC08F063D0380E7419D8A42F
:100328001BD0940E096E7F0E0A6E3BEC08F0080E87
:100338000001886F080E736F000E086E000E096EBC
:10034800000E0A6E010E7EEC09F0680E096E7F0E33
:100358000A6E3BEC08F044D0390E7419D8A41BD0AF
:10036800940E096E7F0E0A6E3BEC08F0090E000130
:10037800886F090E736F000E086E000E096E010E6D
:100388000A6E010E7EEC09F07E0E096E7F0E0A6E73
:100398003BEC08F025D06F0E7419D8A408D0F00EE5
:1003A800096E7F0E0A6E3BEC08F06F0E17D0660ED2
:1003B8007419D8A408D0E00E096E7F0E0A6E3BECC3
:1003C80008F0660E0BD06B0E7419D8A409D0AA0ECB
:1003D800096E7F0E0A6E3BEC08F06B0E0001886F09
:1003E800880E116E000E126E76C013F0000E156E98
:1003F800080E146E8A0E166E000E176EB4EC08F016
:10040800040E0001AE6F3D0EE82EFED7AE2FFCD7CE
:1004180000D02AD69E96C6AEF9D0C69E000E546E5F
:10042800000120EE03F06F51D9267051DA22DECF99
:1004380004F0DDCF05F004C0D9FF05C0DAFF010ED6
:10044800DF6E000E6F6F000E706F1200000164B354
:10045800120062C06FF063C070F062C0D9FF63C061
:10046800DAFFDF50536E20EE01F06251D926635156
:10047800DA22DECF71F0DDCF72F0050E6227000EB2
:100488006323870E621908E1000E6319D8A404D00B
:10049800820E626F000E636F64916051621904E10D
:1004A80061516319D8B46483C580020E546E12007A
:1004B800C5AC06D00001662B040E42EC09F0120010
:1004C800D8905630056E5530046E0450C96E55A04C
:1004D80003D00B0E546E1200030E546E1200C5ACFE
:1004E80006D00001662B040E42EC09F01200C5820A
:1004F80055C004F056C005F005C004F0056A060EA4
:100508000416000E0516F00E0410556E0550566EB2
:100518005580010E516EC9D75104D8B41BD071C093
:10052800D9FF72C0DAFFDECF55F0DDCF56F00001FB
:1005380020EE03F07151D9267251DA22DECF6DF028
:10054800DDCF6EF020EE02F07151D9267251DA2219
:10055800DF50526E55C0C9FF55A0BED7050E546E68
:100568001200C5AC07D00001662BC59C050E42ECF5
:1005780009F0120052065228D8A40DD0050E000129
:100588007127000E7223532E04D0000E42EC09F09E
:100598001200C5828AD76DC0D9FF6EC0DAFFDF505E
:1005A800C96E00016D4B6E2B1200C5AC07D000015F
:1005B800662B040E42EC09F0C59C1200C586080E95
:1005C800546E1200080E546EC58612006DC0D9FF15
:1005D8006EC0DAFFC9CFDFFF00016D4B6E2B010E35
:1005E800525ED8B404D0C59A060E546E03D0C58A9C
:1005F80010EC0AF0C5881200000E42EC09F0120057
:100608000001662B060E42EC09F012005450046EED
:10061800056A0550000AD8A4F3D70450000AD8B4D4
:1006280015D7010AD8B4B5D7030AD8B475D7010AC3
:10063800D8B497D7070AD8B4DFD7010AD8B4B5D742
:10064800030AD8B4BFD7010AD8B4D6D70F0AD8B48A
:10065800BDD7020AD8B42CD7010AD8B440D7D0D70E
:1006680027C03FF028C040F029C041F02AC042F01E
:100678002BC043F02CC044F02DC045F02EC046F0EE
:1006880046AE02D0010E01D0000E3D6E3E6A3D50CE
:100698003E10D8B410D0461E451E441E431E421EAE
:1006A800411E401E3F6C000E40224122422243223E
:1006B80044224522462200016CAF4F926CBF05D000
:1006C8006C5108E16B05D8B005D0000E3A6E010EEA
:1006D800396E04D06BC039F06CC03AF069C03BF099
:1006E8006AC03CF03D503E10D8A402D04FA403D0BD
:1006F8003B06D8A03C06000E486E1F0E476E000E43
:1007080001016F6F7CD04706D8A04806500E4724D9
:10071800D96E010E4820DA6E3FC008F040C009F0DB
:1007280041C00AF042C00BF043C00CF044C00DF0C9
:1007380045C00EF046C00FF00A0E106E000E116E86
:10074800000E126E000E136E000E146E000E156E63
:10075800000E166E000E176EEEEC05F008C02FF0B6
:1007680009C030F00AC031F00BC032F00CC033F0D1
:100778000DC034F00EC035F00FC036F02FC01AF09F
:1007880031C01BF0CCEC09F01A50300FDF6E39067F
:10079800D8A03A063B06D8A03C063FC008F040C0A7
:1007A80009F041C00AF042C00BF043C00CF044C04D
:1007B8000DF045C00EF046C00FF00A0E106E000E88
:1007C800116E000E126E000E136E000E146E000EE7
:1007D800156E000E166E000E176E4AEC05F008C076
:1007E8003FF009C040F00AC041F00BC042F00CC015
:1007F80043F00DC044F00EC045F00FC046F048BEAF
:100808001FD0485003E14704D8A01AD03F504010E9
:10081800411042104310441045104610D8A473D715
:100828003ABE05D03A5002E13904D8B06CD73CBE84
:1008380007D03C5003E13B04D8A002D04FB263D7A5
:100848003D503E10D8A402D04FA417D04706D8A0D8
:1008580048063D503E10D8A404D0000E386E2B0E2A
:1008680003D0000E386E2D0E376E500E4724D96E09
:10087800010E4820DA6E37C0DFFF25C01AF026C007
:100888001BF0500E47241C6E010E48201D6E3BC005
:100898001EF03CC01FF09CEC07F01AC025F01BC0EE
:1008A80026F012004BC0D9FF4CC0DAFFDECFF6FFAE
:1008B800DDCFF7FF0800F550250AD8A4CDD04BC0EE
:1008C800D9FF4CC0DAFFDE2A000EDD22000E00013F
:1008D8006A6F000E696F69C04FF06AC050F06B69AB
:1008E8006C694BC0D9FF4CC0DAFFDECFF6FFDDCF15
:1008F800F7FF0800F550630AD8A426D04BC0D9FFEB
:100908004CC0DAFFDE2A000EDD224DC0D9FF4EC0F2
:10091800DAFFDFCF8BF0020EDE26DFCF8CF0000E81
:10092800DD228BC0D9FF8CC0DAFFDF50956F49C03C
:1009380025F04AC026F095C027F064EC08F025C0E1
:1009480049F026C04AF012004BC0D9FF4CC0DAFF6C
:10095800DECFF6FFDDCFF7FF0800F550640AD8B404
:100968000DD04BC0D9FF4CC0DAFFDECFF6FFDDCF8C
:10097800F7FF0800F550690AD8A43FD04BC0D9FF4B
:100988004CC0DAFFDE2A000EDD224DC0D9FF4EC072
:10099800DAFFDFCF8BF0020EDE26DFCF8CF0000E01
:1009A800DD228BC0D9FF8CC0DAFFDECF8DF0DDCF22
:1009B8008EF0000E8EBFFF0E8F6F906F916F926F4B
:1009C800936F946F49C025F04AC026F08DC027F078
:1009D8008EC028F08FC029F090C02AF091C02BF06B
:1009E80092C02CF093C02DF094C02EF034EC03F09C
:1009F80025C049F026C04AF012004BC0D9FF4CC0B0
:100A0800DAFFDECFF6FFDDCFF7FF0800F550250A45
:100A1800D8A416D04BC0D9FF4CC0DAFFDE2A000E8E
:100A2800DD22000E0B6E250E0A6E49C00CF04AC07E
:100A38000DF0FDEC06F0000E4A6E010E496E120034
:100A48004BC0D9FF4CC0DAFFDE2A000EDD22000EB3
:100A58004A6E000E496E12004BC0D9FF4CC0DAFF37
:100A6800DECFF6FFDDCFF7FF0800F5500A6E0B6A00
:100A780049C00CF04AC00DF0FDEC06F04BC0D9FFA0
:100A88004CC0DAFFDE2A000EDD22D5D7000E196E23
:100A980017AE12D0171E161E151E141E131E121E78
:100AA800111E106C000E112212221322142215227C
:100AB80016221722010E196E0FAE12D00F1E0E1E2F
:100AC8000D1E0C1E0B1E0A1E091E086C000E0922A4
:100AD8000A220B220C220D220E220F22010E191AB5
:100AE80020EE1AF0070EDE6AE806FDE2105011103B
:100AF800121013101410151016101710D8B446D071
:100B0800010E186E0AD0D8901036113612361336E8
:100B18001436153616361736182A17AEF4D7D89065
:100B28001A361B361C361D361E361F362036213621
:100B38001050085C1150095812500A5813500B589D
:100B480014500C5815500D5816500E5817500F5871
:100B5800D8A011D01050085E1150095A12500A5AE4
:100B680013500B5A14500C5A15500D5A16500E5A51
:100B780017500F5A1A80D89017321632153214327D
:100B88001332123211321032182EC9D71950D8B474
:100B980010D0211E201E1F1E1E1E1D1E1C1E1B1EC9
:100BA8001A6C000E1B221C221D221E221F2220222C
:100BB80021221AC008F01BC009F01CC00AF01DC091
:100BC8000BF01EC00CF01FC00DF020C00EF021C0AD
:100BD8000FF01200000E196E0FAE12D00F1E0E1E6F
:100BE8000D1E0C1E0B1E0A1E091E086C000E092283
:100BF8000A220B220C220D220E220F22010E196E40
:100C080017AE10D0171E161E151E141E131E121E08
:100C1800111E106C000E112212221322142215220A
:100C2800162217221050111012101310141015103C
:100C380016101710D8B43CD0010E186E0AD0D890F0
:100C48001036113612361336143615361636173650
:100C5800182A17AEF4D71050085C115009581250D2
:100C68000A5813500B5814500C5815500D5816505C
:100C78000E5817500F58D8A010D01050085E1150B9
:100C8800095A12500A5A13500B5A14500C5A15503C
:100C98000D5A16500E5A17500F5AD890173216324E
:100CA800153214321332123211321032182ED3D7B1
:100CB8001950D8B410D00F1E0E1E0D1E0C1E0B1E80
:100CC8000A1E091E086C000E09220A220B220C2299
:100CD8000D220E220F2208C008F009C009F00AC030
:100CE8000AF00BC00BF00CC00CF00DC00DF00EC0DC
:100CF8000EF00FC00FF01200F70E096E7C0E0A6E90
:100D08003BEC08F03F0E096E7D0E0A6E3BEC08F0D6
:100D1800000E00019E6F010E9F6F990EA06F7E0E50
:100D2800A16F73C0A2F0A36B12EC08F0000E096E5D
:100D3800010E0A6E3BEC08F03F0E096E7D0E0A6E3E
:100D48003BEC08F0000E00019E6F010E9F6F5A0EDB
:100D5800A06F7E0EA16F87C0A2F0A36B12EC08F003
:100D6800000E096E010E0A6E3BEC08F03F0E096E8C
:100D78007D0E0A6E3BEC08F07E0E096E7D0E0A6E43
:100D88003BEC08F03F0E096E7D0E0A6E3BEC08F056
:100D98007A0E096E7E0E0A6E3BEC08F03A0E096E6A
:100DA8007E0E0A6E3BEC08F0490E096E7D0E0A6E47
:100DB8003BEC08F0D30E096E7D0E0A6E3BEC08F092
:100DC800AE0E096E7D0E0A6E3BEC08F0F80E096E49
:100DD8007D0E0A6E3BEC08F03F0E096E7D0E0A6E22
:100DE8003BEC08F0F70E096E7C0E0A6E3BEC08F03F
:100DF80012000C500D10D8B404D00C500D10D8A40B
:100E080004D00A5046EC0AF0120020EE04F00C5010
:100E1800D9260D50DA22DE50DE10D8B416D020EED6
:100E280004F00C50D9260D50DA2210EE02F00C50C6
:100E3800E1260D50E222DE50E65CE650800A126E92
:100E4800DE50800A1258D8B0120020EE02F00C5082
:100E5800D9260D50DA22DECF0EF0DDCF0FF00CC010
:100E6800D9FF0DC0DAFFDECF10F0DDCF11F00E5044
:100E78001024D96E0F501120DA6E0AC0DFFF20EE61
:100E880002F00C50D9260D50DA22DE2A000EDD229F
:100E980012000D6E000164B139D00AC0D9FF0BC031
:100EA800DAFF020EDF6E20EE01F06051D9266151A3
:100EB800DA2208C0DEFF09C0DDFF60C0D9FF61C0CB
:100EC800DAFF0DC0DFFF20EE03F06051D926615133
:100ED800DA220AC0DEFF0BC0DDFF050E6027000E18
:100EE8006123870E601908E1000E6119D8A404D0A7
:100EF800820E606F000E616F6493605162190CE19D
:100F080061516319D8A408D0648106D00AC0D9FFFA
:100F18000BC0DAFF010EDF6E0AC0D9FF0BC0DAFF83
:100F2800020EDE18D8A412005AEC0AF09E861200AF
:100F38004FA00AD01CC013F01DC014F01AC015F041
:100F48001BC016F062EC09F01FBE05D01EC023F0CE
:100F58001FC024F004D0000E246E000E236E000E75
:100F6800226E000E216E0CD0000E0B6E200E0A6E43
:100F78001AC00CF01BC00DF0FDEC06F0214A222A25
:100F88002350215C2250800A206E2450800A205869
:100F9800D8A0EAD74FB00AD01CC013F01DC014F077
:100FA8001AC015F01BC016F062EC09F01CC008F05E
:100FB8001DC009F0FBEC09F0235008241A6E2450D8
:100FC80009201B6E120098C09CF099C09DF0000E7D
:100FD8000001686F000E676F13D096C049F097C084
:100FE8004AF09C0E4B6E000E4C6E9AC04DF09BC0A2
:100FF8004EF056EC04F04950000167274A50682328
:101008009CC0F6FF9DC0F7FF0800F5500009D8A462
:10101800E4D767C096F068C097F01200A20E0001EE
:10102800A66F000EA76F9EC0A8F09FC0A9F0000E83
:10103800AB6F000EAA6F000EAD6F000EAC6FA80E5E
:10104800966F000E976FA0C098F0A1C099F0A60EF9
:101058009A6F000E9B6FE7EC07F00001AA519E25DE
:10106800D96EAB519F21DA6E000EDF6E120014D0DC
:1010780009C0F6FF0AC0F7FFF86A050EF76403D047
:101088000800F55005D0F6CFE1FFF7CFE2FFE750B3
:101098003AEC0AF0094A0A2A09C0F6FF0AC0F7FF23
:1010A800F86A050EF76403D00800F55005D0F6CFAE
:1010B800E1FFF7CFE2FFE7500009D8B41200D8D714
:1010C800000169516A11D8A405D069C028F06AC026
:1010D80029F006D0FF0E6925286EFF0E6A21296EB9
:1010E80027C050F1000E0101516F25C01AF026C02B
:1010F8001BF0500E1C6E010E1D6E28C01EF029C07C
:101108001FF09CEC07F01AC025F01BC026F0120057
:101118000DC00FF00EC010F0D8900F36103608C072
:10112800D9FF09C0DAFF0FC0DEFF10C0DDFF08C01D
:10113800D9FF09C0DAFF000EDB8020EE02F008506C
:10114800D9260950DA220CC0DFFF20EE03F0085040
:10115800D9260950DA220AC0DEFF0BC0DDFF1200D3
:10116800000164B11CD07D0E086E000E096E11C01E
:101178000AF012C00BF013C00CF014C00DF015C02B
:101188000EF000EC09F07D0E086E000E096E16C018
:101198000AF017C00BF0010E4DEC07F0120016C054
:1011A800D9FF17C0DAFF010EDF6E1200000164B12B
:1011B8001CD0780E086E000E096E11C00AF012C01D
:1011C8000BF013C00CF014C00DF015C00EF08CEC31
:1011D80008F0780E086E000E096E16C00AF017C0E7
:1011E8000BF0010E4DEC07F0120016C0D9FF17C026
:1011F800DAFF010EDF6E12000DC00FF00EC010F006
:10120800D8900F36103608C0D9FF09C0DAFF0FC0D2
:10121800DEFF10C0DDFF20EE02F00850D92609508D
:10122800DA220CC0DFFF20EE03F00850D92609505F
:10123800DA220AC0DEFF0BC0DDFF1200080EB86E0E
:10124800900EAB6E240EAC6E190EAF6E000EB06E23
:10125800000E086E000E096E50EC0AF0000E086EC3
:10126800000E096E4BEC0AF0000E086E000E096EB7
:1012780055EC0AF0000E0001776F1200036EC5846A
:10128800000120EE03F06F51D9267051DA22DE50AA
:10129800DE10D8B410D020EE03F06F51D92670516B
:1012A800DA22DECF01F0DDCF02F001C0D9FF02C0A3
:1012B800DAFF03C0DFFF000E546E1200000E196E35
:1012C800000E186E0BD017C00AF00B6A15C00CF090
:1012D80016C00DF0FDEC06F0184A192A1850132410
:1012E800D96E19501420DA6EDF50176E1750D8B423
:1012F8001200E9D70B6E8B9A0B04D8A402D08A8609
:1013080001D08A960804D8A402D08A8401D08A948D
:101318000904D8A402D08A8201D08A920A04D8A4E7
:1013280002D08A8012008A901200820E0001626F39
:10133800000E636F820E606F000E616F64836491AC
:10134800000E666F800EC76E280EC66E000ECB6E3E
:10135800030EC86E9E96A1969D86A086120001EE89
:1013680050F0200EEE6AE806FDE100EE60F02B0E6C
:10137800EE6AE806FDE100EE4FF0080EEE6AE806B8
:10138800FDE157905792000EF86E00011EEF00F035
:101398001BBE05D01B5010E11A04D8B00DD01AC0DE
:1013A8001CF01BC01DF01C1E1D1E1C4A1D2A1CC043
:1013B8001AF01DC01BF012001AC01AF01BC01BF057
:1013C8001200000E896E000E8A6E000E8B6E9268F7
:1013D800F00E936E9F0E946E240E0F013A6F3F0E1F
:1013E800396F2F0E386F000E616EF18E120008C033
:1013F8000AF009C00BF002D0084A092A08C0D9FF30
:1014080009C0DAFFDF50D8A4F7D70A50085C086E85
:101418000B500958096E1200050E00017127000EC5
:101428007223532E03D0040E546E1200010E546E14
:1014380012005EEC0AF0E5EC09F033EC0AF099ECE6
:1014480009F022EC09F012009EAAFED7000E000156
:10145800776FABA202D0AB98AB88AE501200300EBB
:10146800D36E040ED26E000E9B6E1200086E9EA8FC
:10147800FED708C0ADFF12009EAA02D0010E1200CE
:10148800000E1200096E09503AEC0AF0120008C06A
:10149800B2F009C0B3F0120008C0B4F009C0B5F04A
:1014A800120008C0B0F009C0B1F012005450D8B40E
:0C14B8001200FCD7D09E1200A19612007A
:107CF600002F2F2F2F2F2F2F2F2F2F2F2F2F2F2FBD
:107D06002F2F2F2F2F2F2F2F2F2F2F2F2F2F2F2F7D
:107D16002F2F2F2F2F2F2F2F2F2F2F2F2F2F2F2F6D
:107D26002F2F2F2F2F2F2F2F2F2F2F2F2F2F2F2F5D
:107D36002F2F2F2F2F2F2F2F2F2F2F2F2F2F2F2F4D
:107D46002F0A002F2F2F2F2F2F2F2F2020202020DC
:107D56002053657420506F696E74203C733E202852
:107D66007363616C65642066726F6D203120746F79
:107D76002039292020200A002F2F2F2F2F2F2F2F99
:107D8600202020506C656173652063686F6F736592
:107D960020666F6C6C6F77696E6720636F6D6D61BF
:107DA6006E643A2020200A002F2F2F2F2F2F2F2FDF
:107DB600202020202020537065656420446563726E
:107DC60065617365203C643E2020200A002F2F2F1A
:107DD6002F2F2F2F2F202020202020537065656401
:107DE60020496E637265617365203C693E202020E0
:107DF6000A002F2F2F2F2F2F2F2F2020202020203B
:107E06004B656570205370656564203C6B3E202091
:107E1600200A005741524E494E472067656E6572EB
:107E2600617465642070726F677265737320686F22
:107E36006C640A002F2F2F2F2F2F2F2F202020206A
:107E460020204D6F746F72204F4646203C663E20C0
:107E560020200A002F2F2F2F2F2F2F2F20202057A3
:107E660061726E696E67204C6576656C3A20256393
:107E760020200A002F2F2F2F2F2F2F2F20202020BA
:107E860020204D6F746F72204F4E203C6F3E202095
:107E9600200A002F2F2F2F2F2F2F2F202020536522
:107EA6007420506F736974696F6E3A2025642020C0
:107EB6000A0043757272656E7420706F7369746917
:107EC6006F6E3A2030200A0043757272656E742018
:107ED600706F736974696F6E3A2031200A004375BA
:107EE6007272656E7420706F736974696F6E3A2072
:107EF60032200A0043757272656E7420706F736962
:107F060074696F6E3A2033200A0043757272656E8B
:107F16007420706F736974696F6E3A2034200A009A
:107F260043757272656E7420706F736974696F6ED3
:107F36003A2035200A0043757272656E7420706FA0
:107F4600736974696F6E3A2036200A00437572723F
:107F5600656E7420706F736974696F6E3A2037208E
:107F66000A0043757272656E7420706F7369746966
:107F76006F6E3A2038200A0043757272656E74205F
:107F8600706F736974696F6E3A2039200A00436F07
:107F96006F7264696E617465642072656365697683
:107FA60065640A004B6565702063757272656E7450
:107FB6002073706565640A005370656564204465C6
:107FC600637265617365640A005370656564204970
:107FD6006E637265617365640A005475726E206F14
:107FE6006666206D6F746F720A005475726E206F2C
:0A7FF6006E206D6F746F720A0000B8
:020000040020DA
:08000000FFFFFFFFFFFFFFFF00
:020000040030CA
:0E000000FF281F3CFFBF85FF0FC00FE00F4021
:00000001FF
